:100000000C94830F0C94AB0F0C94AB0F0C94AB0FB0
:100010000C94AB0F0C94AB0F0C94AB0F0C94AB0F78
:100020000C94AB0F0C94AB0F0C94AB0F0C94AB0F68
:100030000C94AB0F0C94AB0F0C94AB0F0C94AB0F58
:100040000C949F150C94AB0F0C94AB0F0C94AB0F4E
:100050000C94AB0F0C94AB0F0C94AB0F0C94AB0F38
:100060000C94AB0F0C94AB0FFFE0FFD1AFFF32FF4E
:10007000D0FFFEFFE0FFD1AEFFD0FFFEFFE0FFD1DB
:100080001000FFFEFFD0FFE0FFC1FFD1AED580A87A
:100090003FD300408D142000A1C8DA1281CFD9F1DE
:1000A000DB402EA4A6AFFFD0FFFE001117FFFA0B16
:1000B000021B04CD20FFFD0EFD0BFD00000004001F
:1000C00001020B0B040100C0C0C0C0C0C080800092
:1000D000C0C0050303070108D8D890090A14090015
:1000E000001B001B001B007F8036003600FF006CE9
:1000F000006C006C00070E0E0800FE107CD6D6D0F7
:10010000F0781C16D6D67C10100C0B160D0000785B
:1001100040CCC0CD8079000300060004000DE00B48
:10012000301B3011E0090A140B010038006C006C20
:100130000038007300FB00CE00C600CF007D8002B7
:100140000303040108C0C080040E0E0501FD3060E9
:1001500060C0C0C0C0C0C0C0C0606030040E0E052A
:1001600000FDC0606030303030303030306060C012
:1001700005040406000720F870D8080707090001E5
:10018000181818FF1818180303030400FF6060C054
:10019000030101040004E0020202040100C0C004E3
:1001A0000B0B0400001010302020604040C0808005
:1001B000070B0B080000386CC6C6C6C6C6C6C66CA0
:1001C00038040B0B08010030F03030303030303064
:1001D0003030070B0B0800007CC6C6060E0C18302A
:1001E00060C0FE070B0B0800007CC6C606063C0676
:1001F00006C6C67C080B0B080000060E1E3666C637
:10020000C6FF060606070B0B0800007E6060C0FCF8
:100210000E0606C6CC78070B0B0800003C6666C0CD
:10022000DCE6C6C6C6C67C070B0B080000FE060C43
:100230000C18183030606060070B0B0800007CC69B
:10024000C6C6C67CC6C6C6C67C070B0B0800007CAB
:10025000C6C6C6C6C67E06C6CC7802080805020019
:10026000C0C000000000C0C00309090501FF6060B4
:10027000000000006060C00605050801021C70C097
:10028000701C070303090103FE00FE0605050801B3
:1002900002E0380C38E0070B0B0901007CC6C606EB
:1002A0000C1830300030300D0C180E00FF0F803865
:1002B000E0707066B0CD98D998DB18DB30CEE06086
:1002C0000031801F000A0B160A00000C000C001EF3
:1002D0000012003300330061807F806180C0C0C0A5
:1002E000C0080B0B0A0100FEC7C3C3C6FCC6C3C3CC
:1002F000C7FE090B160B01001F007B806080C00049
:10030000C000C000C000C00060807B801F00090BDF
:10031000160B0100FC00C700C300C180C180C18072
:10032000C180C180C300C700FC00070B0B0901009E
:10033000FEC0C0C0C0FEC0C0C0C0FE070B0B09019C
:1003400000FEC0C0C0C0FCC0C0C0C0C0090B160BBE
:1003500001001F007B806080C000C000C780C1809A
:10036000C18061807B801E80080B0B0A0100C3C323
:10037000C3C3C3FFC3C3C3C3C3020B0B040100C089
:10038000C0C0C0C0C0C0C0C0C0C0070B0B080000C8
:1003900006060606060606C6C6EE7C090B160A0108
:1003A00000C300C600CC00D800F000F000D800CC9C
:1003B00000C600C300C180070B0B080100C0C0C00D
:1003C000C0C0C0C0C0C0C0FE0B0B160D0100C06095
:1003D000C060E0E0E0E0F1E0D160D160DB60CA60E5
:1003E000CE60C460090B160B0100C180E180E18082
:1003F000D180D980C980CD80C580C380C380C180B1
:100400000A0B160C01001E0073806180C0C0C0C0C2
:10041000C0C0C0C0C0C0618073801E00080B0B0A42
:100420000100FEC7C3C3C7FEC0C0C0C0C00A0B16D0
:100430000C01001E0073806180C0C0C0C0C0C0C07D
:10044000C0C6C0638073801EC0090B160B0100FE7E
:1004500000C700C300C300C600FE00C700C300C33E
:1004600000C300C180080B0B0A01007EE7C3E078DF
:100470001E0703C3EE7C080B0B080000FF181818BA
:1004800018181818181818090B160B0100C180C18C
:1004900080C180C180C180C180C180C180C18063B2
:1004A000003E000A0B160A0000C0C0C0C061806197
:1004B000807380330033001E001E000C000C000E01
:1004C0000B160E0000C30CC30CC30C679864986431
:1004D000986CD82CD0387018601860090B16090079
:1004E00000C180C180630036001C001C0036006320
:1004F000006300C180C1800A0B160A0000C0C06101
:10050000806180330033001E001E000C000C000CC4
:10051000000C00080B0B090000FF03060C1C183030
:100520007060C0FF040E0E0501FDF0C0C0C0C0C069
:10053000C0C0C0C0C0C0C0F0040B0B04000080806D
:10054000C04040602020301010040E0E0500FDF069
:10055000303030303030303030303030F00605055B
:10056000080106307848CCCC0801010800FDFF03E3
:100570000202050109C06007080808010078CC0CD8
:100580007CCCCCDC76070B0B090100C0C0C0D8ECDA
:10059000C6C6C6C6ECD8060808080100386CCCC030
:1005A000C0CC6C38070B0B090100060606366EC678
:1005B000C6C6C66E3606080808010078CCCCFCC05A
:1005C000C0EC78050B0B040000386060F0606060E0
:1005D00060606060070B0B0901FD3A6EC6C6C6C6B7
:1005E0006E3606CE7C070B0B090100C0C0C0DCEEE6
:1005F000C6C6C6C6C6C6020B0B040100C0C000C0FA
:10060000C0C0C0C0C0C0C0030E0E0400FD606000CA
:10061000606060606060606060E0C0060B0B0801B5
:1006200000C0C0C0CCD8F0F0D8D8CCCC020B0B04A2
:100630000100C0C0C0C0C0C0C0C0C0C0C00A081057
:100640000C0100DB80EEC0CCC0CCC0CCC0CCC0CC98
:10065000C0CCC0070808090100DCEEC6C6C6C6C685
:10066000C6070808090100386CC6C6C6C66C38073C
:100670000B0B0901FDD8ECC6C6C6C6ECD8C0C0C07D
:10068000070B0B0901FD366EC6C6C6C66E360606DA
:1006900006050808060100D8F8C0C0C0C0C0C006E2
:1006A000080808010078CCE0781C0CEC78050A0AF0
:1006B0000500006060F860606060606830070808EE
:1006C000090100C6C6C6C6C6C6EE760808080800F8
:1006D00000C3C36666243C18180A08100A0000CC40
:1006E000C0CCC0CCC06D806D8033003300330007B8
:1006F0000808070000C6C66C38386CC6C6080B0B65
:100700000800FDC3C36666243C181818307006083C
:1007100008060000FC0C18303060C0FC050E0E0608
:1007200000FD183030303060C0603030303030186C
:10073000010E0E0402FD8080808080808080808099
:1007400080808080050E0E0601FDC0606060603014
:1007500018306060606060C007030309010372DE47
:100760008CFFFFFFFFFFFFFFFFFFFFFFFFFFFFFF0C
:10077000FFFFFFFFFFFFFFFFFFFFFFFFFFFFFFFF89
:10078000FFFF000000040001020B0B0401FDC0C0CC
:10079000004040C0C0C0C0C0C0070A0A0800FF0433
:1007A0003C6EC8D0D0E6667C40080B0B0800003CCD
:1007B000666660FC30303060FBDE07070708000229
:1007C000827C6C6C6C7C82080B0B090000C3C3C379
:1007D00066663C7E187E1818010E0E0402FD8080AD
:1007E000808080800000808080808080060E0E08DF
:1007F00001FD78CCCCE078DCCCCCEC781CCCCC788F
:10080000050202050009D8D80A0B160C01001E00CB
:1008100061804C80D2C090409040904092404C808B
:1008200061801E00050707060004709070D0F80074
:10083000F8070505090102366CD86C36070404096F
:100840000102FEFE0202030101040004E00A0B168D
:100850000C01001E0061805C80924092409C40929E
:10086000409240528061801E00050101050009F898
:10087000040404060107609090600809090900005B
:10088000181818FF18181800FF0406060500056060
:10089000B03060C0F004060605000560B06030B0FE
:1008A0006003020205010960C0070B0B0901FDC6C8
:1008B000C6C6C6C6C6EEF6C0C0C0080E0E0800FD0D
:1008C0003F7AFAFAFA7A3A0A0A0A0A0A0A0A020283
:1008D00002040103C0C00503030500FD18D870031E
:1008E000060604000560E06060606005070706001A
:1008F0000470D8D8D87000F8070505090102D86C33
:10090000366CD80C0B160C00006180E1806300632C
:10091000006600662006600CE00D6019F018600BA0
:100920000B160C00006180E18063006300660066C6
:10093000C007600C600CC0198019E00C0B160C008D
:10094000006180B18063003300B600662006600C51
:10095000E00D6019F01860070B0B0901FD18180075
:1009600018183060C0C6C67C0A0E1C0A00001800A9
:100970000C0000000C000C001E00120033003300BD
:1009800061807F806180C0C0C0C00A0E1C0A000068
:1009900006000C0000000C000C001E0012003300CA
:1009A000330061807F806180C0C0C0C00A0E1C0A15
:1009B00000000E001B0000000C000C001E001200C6
:1009C0003300330061807F806180C0C0C0C00A0EE8
:1009D0001C0A00000D00160000000C000C001E0098
:1009E00012003300330061807F806180C0C0C0C0CE
:1009F0000A0E1C0A00003300330000000C000C003B
:100A00001E0012003300330061807F806180C0C00F
:100A1000C0C00A0E1C0A00000C0012000C000C00E2
:100A20000C001E0012003300330061807F80618063
:100A3000C0C0C0C00E0B160F00000FFC0F001B0043
:100A40001300330033F863007F006300C300C3FC6E
:100A5000090E1C0B01FD1F007B806080C000C000E0
:100A6000C000C000C00060807B801F000600360010
:100A70001C00070E0E090100301800FEC0C0C0C0E7
:100A8000FEC0C0C0C0FE070E0E0901000C1800FE1B
:100A9000C0C0C0C0FEC0C0C0C0FE070E0E0901002D
:100AA0001C3600FEC0C0C0C0FEC0C0C0C0FE070EE5
:100AB0000E0901006C6C00FEC0C0C0C0FEC0C0C00A
:100AC000C0FE030E0E040000C06000606060606045
:100AD000606060606060030E0E04010060C000C0D2
:100AE000C0C0C0C0C0C0C0C0C0C0050E0E04000061
:100AF00070D8006060606060606060606060050E7B
:100B00000E040000D8D800606060606060606060C3
:100B100060600A0B160B00007E006380618060C07D
:100B200060C0F8C060C060C0618063807E00090E54
:100B30001C0B01001A002C000000C180E180E18044
:100B4000D180D980C980CD80C580C380C380C18059
:100B50000A0E1C0C010018000C0000001E0073801F
:100B60006180C0C0C0C0C0C0C0C0C0C06180738050
:100B70001E000A0E1C0C010006000C0000001E00E6
:100B800073806180C0C0C0C0C0C0C0C0C0C0618030
:100B900073801E000A0E1C0C01000E001B000000DA
:100BA0001E0073806180C0C0C0C0C0C0C0C0C0C0D3
:100BB000618073801E000A0E1C0C01000D001600DF
:100BC00000001E0073806180C0C0C0C0C0C0C0C033
:100BD000C0C0618073801E000A0E1C0C010033002F
:100BE000330000001E0073806180C0C0C0C0C0C060
:100BF000C0C0C0C0618073801E00080707090001E3
:100C0000C3663C183C66C30C0B160C00000F303951
:100C1000E030C061E0636066606C60786030C0792D
:100C2000C0CF00090E1C0B010018000C000000C111
:100C300080C180C180C180C180C180C180C180C1AC
:100C40008063003E00090E1C0B010006000C000032
:100C500000C180C180C180C180C180C180C180C10C
:100C600080C18063003E00090E1C0B01001C003691
:100C7000000000C180C180C180C180C180C180C12D
:100C800080C180C18063003E00090E1C0B0100631F
:100C90000063000000C180C180C180C180C180C1EB
:100CA00080C180C180C18063003E000A0E1C0A0022
:100CB0000006000C000000C0C0618061803300337A
:100CC000001E001E000C000C000C000C00080B0B9A
:100CD0000A0100C0C0FEC7C3C3C7FEC0C0C0060B28
:100CE0000B08010078CCCCCCD8D8CCCCCCCCD80755
:100CF0000B0B08010030180078CC0C7CCCCCDC76D7
:100D0000070B0B08010018300078CC0C7CCCCCDC35
:100D100076070B0B080100386C0078CC0C7CCCCC2F
:100D2000DC76070B0B08010034580078CC0C7CCC27
:100D3000CCDC76070B0B0801006C6C0078CC0C7CCB
:100D4000CCCCDC76070B0B08010030483078CC0C9B
:100D50007CCCCCDC760B08100D01007BC0CE600C87
:100D6000607FE0CC00CC00DE6077C0070B0B090190
:100D7000FD3C66C6C0C0C6663C185870060B0B0822
:100D8000010060300078CCCCFCC0C0EC78060B0BC6
:100D900008010018300078CCCCFCC0C0EC78060B01
:100DA0000B080100386C0078CCCCFCC0C0EC780695
:100DB0000B0B0801006C6C0078CCCCFCC0C0EC784C
:100DC000030B0B040000C060006060606060606046
:100DD00060030B0B04010060C000C0C0C0C0C0C0F5
:100DE000C0C0050B0B04000070D80060606060603C
:100DF000606060050B0B040000D8D8006060606084
:100E000060606060070B0B0901006C38483C6CC6E1
:100E1000C6C6C66C38070B0B090100345800DCEE5F
:100E2000C6C6C6C6C6C6070B0B0901003018003877
:100E30006CC6C6C6C66C38070B0B0901001830001B
:100E4000386CC6C6C6C66C38070B0B090100386C77
:100E500000386CC6C6C6C66C38070B0B09010034D7
:100E60005800386CC6C6C6C66C38070B0B090100A3
:100E70006C6C00386CC6C6C6C66C3808070709001B
:100E800001181800FF0018180708080901003A6C3B
:100E9000CED6D6E66CB8070B0B090100301800C699
:100EA000C6C6C6C6C6EE76070B0B0901000C1800B5
:100EB000C6C6C6C6C6C6EE76070B0B090100386C5F
:100EC00000C6C6C6C6C6C6EE76070B0B0901006C87
:100ED0006C00C6C6C6C6C6C6EE76080E0E0800FD75
:100EE0000C1800C3C36666243C1818183070070E2F
:100EF0000E0901FDC0C0C0D8ECC6C6C6C6ECD8C03D
:100F0000C0C0080E0E0800FD363600C3C366662456
:100F10003C181818307000141BFEF90C024A056AC0
:100F200020FFFC10FC0CFC000000050001020C0C72
:100F3000060200C0C0C0C0C0C080808000C0C00524
:100F40000404080108D8D8D848090C180900001B67
:100F5000001B001B007F807F8036003600FF00FFF3
:100F6000006C006C006C00070E0E0901FF107CFE87
:100F7000D6D0F0783C1E16D6FE7C100D0C180E0054
:100F80000030407880CC80CD0079003200026004CF
:100F9000F00598099808F010600A0C180C01003C44
:100FA000007E00660066003C0038C07DC0CF80C770
:100FB00000C7007F8039C0020404040108C0C0C01B
:100FC00040040F0F0601FD307060C0C0C0C0C0C03B
:100FD000C0C0C0607030040F0F0600FDC0E060307C
:100FE000303030303030303060E0C005050506006C
:100FF0000720A87070880808080A0100181818FF50
:10100000FF1818180205050401FDC0C04040800407
:101010000202050003F0F0020202040100C0C00455
:101020000C0C0500001010302020604040C0808073
:1010300080080C0C0900003C7EE7C3C3C3C3C3C3D4
:10104000E77E3C050C0C0901000818F8F818181880
:101050001818181818080C0C0900003C7EE7C3C3C8
:10106000070E1C3870FFFF080C0C0900003C7EE7DF
:10107000C3071E1E07C3E77E3C080C0C0900000EC8
:101080001E36366666C6FFFF060606080C0C09000B
:10109000003F3F30307C7E470303E77E3C080C0C6A
:1010A0000900003C7EE7C0DCFEE7C3C3E77E3C08E6
:1010B0000C0C090000FFFF06060C0C181818303045
:1010C00030080C0C0900003C7EE7C3663C7EE7C399
:1010D000E77E3C080C0C0900003C7EE7C3C3E77FB9
:1010E0003B03E77E3C020808050200C0C000000088
:1010F00000C0C0020B0B0502FDC0C000000000C014
:10110000C04040800808080A0100030F3CE0E03CB2
:101110000F030806060A0101FFFF0000FFFF080891
:10112000080A0100C0F03C07073CF0C0070C0C0A9D
:1011300001007CFEC6C6060E0C18180018180D0E0D
:101140001C1001FE0FC03860601047D8CC4888C81A
:1011500098C898889998C9904660600038C00F80F8
:101160000B0C180C00000E000E001F001B003B8033
:10117000318071C060C07FC0FFE0C060C060090CFA
:10118000180B0100FE00FF00C380C180C380FF0078
:10119000FF00C380C180C380FF00FE000A0C180C52
:1011A00001001F003F8071C060C0E000C000C000AF
:1011B000E00060C071C03F801F000A0C180C0100E5
:1011C000FC00FF00C380C180C1C0C0C0C0C0C1C09E
:1011D000C180C380FF00FC00080C0C0A0100FFFF67
:1011E000C0C0C0FEFEC0C0C0FFFF080C0C0A01005A
:1011F000FFFFC0C0C0FEFEC0C0C0C0C00A0C180CBB
:1012000001001F003F8071C060C0E000C000C3C08B
:10121000E3C060C071C03FC01EC00A0C180C0100C2
:10122000C0C0C0C0C0C0C0C0FFC0FFC0C0C0C0C040
:10123000C0C0C0C0C0C0C0C0020C0C040100C0C00F
:10124000C0C0C0C0C0C0C0C0C0C0070C0C090100F5
:101250000606060606060606C6C6FE7C0B0C180C1D
:101260000100C1C0C380C700CE00DC00F800FC0054
:10127000CE00C700C380C1C0C0E0080C0C0A01004A
:10128000C0C0C0C0C0C0C0C0C0C0FFFF0B0C180DA4
:101290000100E0E0E0E0E0E0F1E0F1E0D160DB60FF
:1012A000DB60CA60CE60CE60C4600A0C180C01001E
:1012B000E0C0F0C0F0C0D8C0D8C0CCC0CCC0C6C060
:1012C000C6C0C3C0C3C0C1C00B0C180D01001F00B5
:1012D0003F8071C060C0E0E0C060C060E0E060C01E
:1012E00071C03F801F00090C180B0100FE00FF00B9
:1012F000C380C180C180C380FF00FE00C000C00069
:10130000C000C0000B0D1A0D01FF1F003F8071C00F
:1013100060C0E0E0C060C060E26067C073C03F8052
:101320001FC000800A0C180C0100FF00FF80C18064
:10133000C180C380FF00FF00C380C180C180C1C0E5
:10134000C1C0090C180B01003E007F00E380C18082
:10135000F0007E001F000380C180E3807F003E001C
:101360000A0C180A0000FFC0FFC00C000C000C00A3
:101370000C000C000C000C000C000C000C000A0C03
:10138000180C0100C0C0C0C0C0C0C0C0C0C0C0C038
:10139000C0C0C0C0C0C0E1C07F803F000A0C180BB5
:1013A0000000C0C0C0C06180618061803300330034
:1013B00033001E001E000C000C000E0C180F000065
:1013C000C30CC30CC30C63186798679834B03CF027
:1013D0003CF0186018601860090C180B0100C180FF
:1013E000E380630036003E001C001C003E00360017
:1013F0006300E380C1800A0C180B0000C0C0E1C08C
:101400006180330033001E001E000C000C000C0035
:101410000C000C00080C0C0A0100FFFF07060C1C56
:10142000383060E0FFFF040F0F0601FDF0F0C0C090
:10143000C0C0C0C0C0C0C0C0C0F0F0040C0C0500EB
:10144000008080C0404060202030101010040F0F3A
:101450000600FDF0F0303030303030303030303099
:10146000F0F00807070A010518183C6666C3C309AF
:1014700001020900FDFF8003030306020A80C02069
:101480000809090901007CFEC60E7EE6C6FE770843
:101490000C0C0A0100C0C0C0DCFEE7C3C3C3E7FEFA
:1014A000DC0809090901003C7EE7C0C0C0E77E3CBA
:1014B000080C0C0A01000303033F7FE7C3C3C3E723
:1014C0007F3B0809090A01003C7EC3FFFFC0E77E9D
:1014D0003C040C0C060100307060F0F0606060604D
:1014E000606060080D0D0A01FC3B7FE7C3C3C3E7E2
:1014F0007F3B03E77E3C080C0C0A0100C0C0C0DE45
:10150000FFE3C3C3C3C3C3C3020C0C040100C0C0C8
:1015100000C0C0C0C0C0C0C0C0C00310100501FCE6
:101520006060006060606060606060606060E0C03B
:10153000080C0C090100C0C0C0C7CEDCF8FCECCE22
:10154000C6C7020C0C040100C0C0C0C0C0C0C0C0EF
:10155000C0C0C0C00C09120E0100DEE0FFF0E73091
:10156000C630C630C630C630C630C6300809090A93
:101570000100DEFFE3C3C3C3C3C3C30809090A01F3
:10158000003C7EE7C3C3C3E77E3C080D0D0A01FCA7
:10159000DCFEE7C3C3C3E7FEDCC0C0C0C0080D0D5E
:1015A0000A01FC3B7FE7C3C3C3E77F3B030303039D
:1015B000050909060100D8F8E0C0C0C0C0C0C007D6
:1015C00009090901007CFEC6F07C0EC6FE7C040BF6
:1015D0000B0601006060F0F06060606060703008D1
:1015E00009090A0100C3C3C3C3C3C3C7FF7B0809FA
:1015F00009090000C3C36666663C3C18180C091252
:101600000D0000C630C630666066606F603FC0394E
:10161000C019801980070909090100C6C66C7C3809
:101620007C6CC6C6080D0D0900FCC3C36366363664
:101630003C1C1818187060070909080000FEFE0E0F
:101640001C183870FEFE040F0F0601FD307060603C
:10165000606060C060606060607030011010040104
:10166000FC808080808080808080808080808080FE
:1016700080040F0F0601FDC0E060606060603060B4
:1016800060606060E0C00803030A010371998EFF87
:10169000FFFFFFFFFFFFFFFFFFFFFFFFFFFFFFFF5A
:1016A000FFFFFFFFFFFFFFFFFFFFFFFFFFFFFFFF4A
:1016B000000000050001020C0C0601FDC0C0004046
:1016C0004040C0C0C0C0C0C0080B0B0900FF043CB4
:1016D0007EEFC8D8D0F77E3C20080C0C0900001C17
:1016E0003E636360307C3030207FFF0707070901CD
:1016F00002BA7CC6C6C67CBA080C0C090000C3C37B
:1017000066663C187E187E1818180110100502FC39
:1017100080808080808080000080808080808080C9
:10172000080F0F0900FD3C7E6660787EC7C3F37E1C
:101730001E06667E3C05020206000AD8D80C0C186C
:101740000C00000F0039C060604F20D9B09010909D
:1017500010D9B04F20602039C00F000507070601DF
:1017600005609070907800F808060609000233665C
:10177000CCCC66330805050A0002FFFF030303040F
:101780000202050003F0F00C0C180C00000F0039E9
:10179000C060605F20D9B099909E10DB305B206004
:1017A0006039C00F0005010106000AF804050507AD
:1017B00001076090909060080B0B0A010018181840
:1017C000FFFF18181800FFFF05070706000570D86F
:1017D000D83060F8F805070706000570D8183018EB
:1017E000D87003030306010A206080080C0C0A016C
:1017F000FDC3C3C3C3C3C3C7FFFBC0C0C0080F0F33
:101800000900FD7FF2F2F2F2F272121212121212BB
:101810001212020202050104C0C00504040600FC05
:101820002030987004070706010530F0F0303030A2
:101830003005070706000570D888D87000F808063C
:1018400006090102CC66333366CC0D0C180E01007C
:1018500030C0F080F18031003330327036F004B0A7
:101860000DB009F8183010300C0C180E0000308044
:10187000F180F1003300320036E035B00DB0086081
:1018800018C011F031F00D0C180E00007040D8C0D7
:10189000188031801930DB7072F006B005B00DF899
:1018A00008301830070C0C0A01FD30300030306071
:1018B000E0C0C6C6FE7C0B10200C00001000180013
:1018C000040000000E000E001F001B003B80318052
:1018D00071C060C07FC0FFE0C060C0600B10200C12
:1018E000000002000600080000000E000E001F00AD
:1018F0001B003B80318071C060C07FC0FFE0C060D2
:10190000C0600B10200C000004000E00110000004D
:101910000E000E001F001B003B80318071C060C0B4
:101920007FC0FFE0C060C0600B0F1E0C00000E8087
:10193000170000000E000E001F001B003B803180CE
:1019400071C060C07FC0FFE0C060C0600B0F1E0CA4
:1019500000003180318000000E000E001F001B00CF
:101960003B80318071C060C07FC0FFE0C060C0605C
:101970000B10200C00000C00120012000C000E00D6
:101980000E001F001B003B80318071C060C07FC013
:10199000FFE0C060C0600E0C180F00001FFC1FFCB1
:1019A0001B003300330033F863F87F007F00C3006F
:1019B000C3FCC3FC0A10200C01FC1F003F8071C057
:1019C00060C0E000C000C000E00060C071C03F80A7
:1019D0001F000400060013000E000810100A01008A
:1019E00020300800FFFFC0C0C0FEFEC0C0C0FFFF27
:1019F0000810100A0100040C1000FFFFC0C0C0FE58
:101A0000FEC0C0C0FFFF0810100A0100081C220021
:101A1000FFFFC0C0C0FEFEC0C0C0FFFF080F0F0A1E
:101A20000100666600FFFFC0C0C0FEFEC0C0C0FF70
:101A3000FF03101004000080C02000606060606040
:101A400060606060606060031010040100206080CE
:101A500000C0C0C0C0C0C0C0C0C0C0C0C005101061
:101A600004000020708800606060606060606060FA
:101A7000606060060F0F04FF00CCCC0030303030C7
:101A800030303030303030300C0C180C00003F005B
:101A90003FC030E030603070FC30FC30307030607F
:101AA00030E03FC03F000A0F1E0C01001D002E0059
:101AB0000000E0C0F0C0F0C0D8C0D8C0CCC0CCC0DE
:101AC000C6C0C6C0C3C0C3C0C1C00B10200D01003A
:101AD00008000C00020000001F003F8071C060C0C1
:101AE000E0E0C060C060E0E060C071C03F801F0007
:101AF0000B10200D010001000300040000001F0076
:101B00003F8071C060C0E0E0C060C060E0E060C0E5
:101B100071C03F801F000B10200D010004000E005B
:101B2000110000001F003F8071C060C0E0E0C06095
:101B3000C060E0E060C071C03F801F000B0F1E0D51
:101B400001000E80170000001F003F8071C060C0C0
:101B5000E0E0C060C060E0E060C071C03F801F0096
:101B60000B0F1E0D01001980198000001F003F801F
:101B700071C060C0E0E0C060C060E0E060C071C003
:101B80003F801F000909120A00004100E38077002E
:101B90003E001C003E007700E38041000B0C180D56
:101BA00001001F203FC070C061C0E360C660CC6010
:101BB000D8E070C061C07F809F000A10200C010037
:101BC0001000180004000000C0C0C0C0C0C0C0C0E9
:101BD000C0C0C0C0C0C0C0C0C0C0E1C07F803F00A6
:101BE0000A10200C01000200060008000000C0C01E
:101BF000C0C0C0C0C0C0C0C0C0C0C0C0C0C0C0C0E5
:101C0000E1C07F803F000A10200C010004000E009C
:101C100011000000C0C0C0C0C0C0C0C0C0C0C0C0B3
:101C2000C0C0C0C0C0C0E1C07F803F000A0F1E0C12
:101C30000100330033000000C0C0C0C0C0C0C0C03D
:101C4000C0C0C0C0C0C0C0C0C0C0E1C07F803F0035
:101C50000A10200B00000200060008000000C0C0AF
:101C6000E1C06180330033001E001E000C000C0038
:101C70000C000C000C00090C180B0100C000FE0049
:101C8000FF00C380C180C180C380FF00FE00C00090
:101C9000C000C000080C0C0A01007CFEC6C6DCDED9
:101CA000C3C3C3C3DEDC080D0D09010020300800EA
:101CB0007CFEC60E7EE6C6FE77080D0D0901000407
:101CC0000C10007CFEC60E7EE6C6FE77080D0D09E0
:101CD0000100103844007CFEC60E7EE6C6FE770882
:101CE0000C0C0901003A5C007CFEC60E7EE6C6FEC6
:101CF00077080C0C0901006C6C007CFEC60E7EE6B9
:101D0000C6FE77080D0D090100182424187CFEC6B4
:101D10000E7EE6C6FE770D09120F01007DE0FFF092
:101D2000C6180FF87FF8E600CF38FFF079E0080D0D
:101D30000D0901FC3C7EE7C0C0C0E77E3C10184C9A
:101D400038080D0D0A0100203008003C7EC3FFFF5B
:101D5000C0E77E3C080D0D0A0100040C10003C7E1B
:101D6000C3FFFFC0E77E3C080D0D0A0100081C22DE
:101D7000003C7EC3FFFFC0E77E3C080C0C0A01005C
:101D80003636003C7EC3FFFFC0E77E3C030D0D04EA
:101D9000000080C020006060606060606060600380
:101DA0000D0D04010020608000C0C0C0C0C0C0C0D4
:101DB000C0C0050D0D0400002070880060606060E8
:101DC0006060606060050C0C040000D8D8006060A2
:101DD00060606060606060080C0C0A0100607CF864
:101DE0001C7EE7C3C3C3E77E3C080C0C0A01003A23
:101DF0005C00DEFFE3C3C3C3C3C3C3080D0D0A0108
:101E000000203008003C7EE7C3C3C3E77E3C080DDA
:101E10000D0A0100081820003C7EE7C3C3C3E77E1B
:101E20003C080D0D0A0100103844003C7EE7C3C396
:101E3000C3E77E3C080C0C0A01003A5C003C7EE7DC
:101E4000C3C3C3E77E3C080C0C0A01006C6C003C69
:101E50007EE7C3C3C3E77E3C0808080A01001818E0
:101E600000FFFF0018180809090A01003D7FE7CFAD
:101E7000DBF3E7FEBC080D0D0A010020300800C3AB
:101E8000C3C3C3C3C3C7FF7B080D0D0A01000818F5
:101E90002000C3C3C3C3C3C3C7FF7B080D0D0A0122
:101EA0000010384400C3C3C3C3C3C3C7FF7B080CBF
:101EB0000C0A01006C6C00C3C3C3C3C3C3C7FF7B60
:101EC0000811110900FC040C1000C3C36366363608
:101ED0003C1C18181870600810100A01FCC0C0C023
:101EE000DCFEE7C3C3C3E7FEDCC0C0C0C0081010FF
:101EF0000900FC363600C3C3636636363C1C18182E
:101F000018706000171711241FBECFEFD8E0DEBF96
:101F1000CDBF11E0A0E0B1E0EEE0F5E302C0059036
:101F20000D92A035B107D9F722E0A0E5B1E001C0DC
:101F30001D92A931B207E1F71FE0C3E8DFE004C05A
:101F40002197FE010E949017C238D107C9F70E945D
:101F5000E9150C94851A0C9400008091E30190918E
:101F6000E401009709F437C02091F601FC0121112A
:101F700007C03596E491E093F701FC013C960FC051
:101F8000213039F43F96E491E093F701FC0170961B
:101F900006C03D96E491E093F701FC013E96E49182
:101FA000E093F8018091F701082E000C990B209125
:101FB000F801821B910927FD93952091F9012034A6
:101FC00041F0829FC001112426E0969587952A95BD
:101FD000E1F78093FA01089580E00895CF92DF92AF
:101FE000EF92FF920F931F93CF93DF936C017A01CF
:101FF0008B01C0E0D0E0CE15DF0581F0D8016D91F6
:102000008D01D601ED91FC910190F081E02DC6018A
:102010000995892B11F02196EECF7E01C701DF9142
:10202000CF911F910F91FF90EF90DF90CF90089587
:102030000895DC011696ED91FC91179712968C91FC
:10204000481B477081E090E001C0880F4A95EAF78D
:10205000E60FF11D3081222311F0832B02C0809501
:10206000832380830895FB014181DC0112962C912A
:102070001297421768F013962C911397241740F08B
:10208000608115962C91621718F424810C94191014
:102090000895FC0130819281930F928321819217E0
:1020A00060F494819F5F94838381830F821710F083
:1020B0008FEF820F838381E0089580E00895FC0113
:1020C000128280818150838314820895DB01ED9117
:1020D000FC9109940F931F93CF93DF931F92CDB779
:1020E000DEB70091E1011091E201E0911002F09160
:1020F000110282E0099520E030E04AE0B8018FED5E
:1021000091E00E946610182FE0911002F0911102E8
:1021100083E00995E0911002F091110280E00995A9
:102120001123C1F16091E1017091E2019E012F5FE5
:102130003F4F46E48FED91E00E94661089818093C5
:10214000DF016091E1017091E2019E012F5F3F4F3D
:1021500047E48FED91E00E94661089818093E00151
:102160006091E1017091E20120E030E048E48FED00
:1021700091E00E9466108093EA016091E101709104
:10218000E20122E132E047E18FED91E00E9466102A
:1021900081E001C080E00F90DF91CF911F910F91FE
:1021A00008950B96FC01849108950A96FC01849190
:1021B0000895FC01849108950E94D910882321F08C
:1021C000823011F083E0089586E00895FC01E60F67
:1021D000F11D849190E0982F88273196E4918E0F1D
:1021E000911D089568E00C94E61066E00C94E610EA
:1021F000BF92CF92DF92EF92FF920F931F93CF93F4
:10220000DF938C01E62EDC011496CD91DC911597BD
:10221000CE010E94D910F82EF801848195810E9488
:10222000DC10C82EF1E0FF1203C02FE0B22E02C076
:10223000BB24BA94D80114968D919C9115970E9455
:10224000D510F82EF801848195810E94D110D82EE6
:10225000D80114968D919C9115970E94F210B0E6CA
:10226000BE1538F4009729F0C80FD91F91E6F92E52
:1022700010C0F801848195810E94F510F0E4FE15EC
:1022800038F4009729F0C80FD91F81E4F82E01C057
:102290006196DE1490F4D80150961C925097539694
:1022A0001C92539754961C92549751961C92519796
:1022B00052961C9280E090E067C0DF1460F38C2D92
:1022C00090E0FE0124912F3F11F4219658C0FE109A
:1022D0004DC0D80114968D919C9115970E94D910EC
:1022E0009E012F5F3F4FFE01882311F08230E1F401
:1022F0008491D80153968C935397F9012491549665
:102300002C935497FE013396E4915096EC9350979A
:10231000FE013496E4915196EC935197FE01359667
:10232000E4915296EC9320C08491982F9F70925024
:10233000D80152969C93529782958F7051968C93A8
:102340005197F9012491822F8F7054968C93549752
:1023500022952F7053962C935397FE013296E49159
:10236000E295EF705096EC93CE010EC0FE013296CE
:10237000E491EB219C012E0F311DC20FD31FFD14E0
:1023800009F489CFF3949DCFDF91CF911F910F91E5
:10239000FF90EF90DF90CF90BF9008950F931F9321
:1023A000CF930EE011E0C0E0F80161918F01662348
:1023B00041F08FED91E00E94F8108091EF01C80F7D
:1023C000F3CF8C2FCF911F910F9108955F926F9251
:1023D0007F928F929F92AF92BF92CF92DF92EF92B5
:1023E000FF920F931F93CF93DF93EC01062F142FCF
:1023F000622F0E94F8107C01892B21F18C819D8134
:102400000E94DC102C899A89920F191B9FEF920F62
:10241000910F3CA94EA9411718F0931728F402C058
:10242000931770F0911760F43B899989090F9FEF1A
:10243000930F900F4BA95DA9501730F4941730F407
:10244000888934C080E032C0941710F49017C0F728
:10245000E80EF11C395F732E769476947694622E92
:10246000610E5E018CE1A80EB11C872C912C6116C7
:1024700039F3502E67018C2D8E19871598F4F601CB
:1024800084916A817B815C8E1D8F1F8E8E8F95015A
:102490004BE3CE010E946610FFEFCF1ADF0A88E0FF
:1024A000580EE9CFE80CF91C1F5FE1CFDF91CF9107
:1024B0001F910F91FF90EF90DF90CF90BF90AF9062
:1024C0009F908F907F906F905F900895EF92FF9212
:1024D0000F931F93CF93DF93F82E062FE42E152F23
:1024E000E091F401F091F5018FED91E00995080F6D
:1024F000CE2DD12F10E02991222349F0402F6F2DAE
:102500008FED91E00E94E611F80E180FF4CF812FA5
:10251000DF91CF911F910F91FF90EF9008952EE9D9
:102520003FE0009729F0F9013197F1F70197F9CFD2
:1025300008959091D001911102C08093D001089527
:102540001F93CF93DF9300D0CDB7DEB720ED37E0F8
:102550003A8329839091BC00982399F429813A8188
:10256000232B51F48091DA01182F127081FD09C0DC
:1025700081E00E94991206C029813A8121503109D7
:10258000E7CF11E0812F0F900F90DF91CF911F9136
:102590000895CF9384EA8093BC0061E080E80E94B4
:1025A000A012882359F08091B900887F883041F0CB
:1025B000803131F061E082E00E949912C0E01DC0DC
:1025C00088E78093BB0084E88093BC0062E080E8E9
:1025D0000E94A012882391F38091DA01C82FC27063
:1025E00081FD0AC08091B900887F883129F062E0BE
:1025F00082E00E94991201C0C1E08C2FCF91089512
:1026000084E98093BC0064E080E10C94A012CF9335
:102610008093BB0084E88093BC0063E080E80E9464
:10262000A012C82F882389F08091DA01C82FC270C8
:1026300081FD0AC08091B900887F883229F063E06B
:1026400082E00E94991201C0C1E08C2FCF910895C1
:102650001092D00108958093DA011092B90084FF9E
:1026600002C08CE001C088E48093B8000C94281369
:10267000CF93DF93FC0123A5222379F0EC010E9484
:10268000C912811102C080E009C08EA1811180E4CD
:102690000E9407138823B9F31BA681E0DF91CF9135
:1026A00008950F931F93CF93C42F89016330C1F016
:1026B00050F4613081F0623009F048C0FC0146A35B
:1026C00021E023A743C0663011F1673079F165300E
:1026D00009F03CC00EC0FC0186A50E942B1336C039
:1026E000FC0116A221E023A7411130C00E94001373
:1026F0002DC00E943813811104C00E94001380E095
:1027000026C08C2F0E940713811120C0F6CF0E9493
:102710003813882391F3CC23C9F0F80181918F01FC
:102720000E940713882349F3C150F5CF0E94381344
:10273000882319F3CC2351F0F80184910E940713E8
:10274000882329F00F5F1F4FC150F4CF81E0CF9154
:102750001F910F910895DB011496ED91FC9115974F
:1027600020E030E065E00994DB011496ED91FC91E6
:10277000159720E030E062E00994DB011496ED91BA
:10278000FC91159720E030E063E00994CF92DF924E
:10279000EF92FF920F931F93CF93DF938C017B01F6
:1027A0006A0180E0F601C49181110BC0CF3F09F4AA
:1027B0004CC04C2FB701C8010E94AB13811143C01C
:1027C00049C0CF3F11F44FEFF5CFCE3F09F444C0DD
:1027D000C03FC8F5C03E38F04C2F4F70B701C8015C
:1027E0000E94B41330C0C03D38F04C2F4F70B70179
:1027F000C8010E94BD1327C0C03CF8F0D701149651
:10280000ED91FC91159720E030E040E064E0C801D4
:102810000995C295C07FCE5FD0E0CE010E948F1295
:10282000D7011496ED91FC91159720E030E041E03E
:1028300064E0C8010995CE0104C0C7FD04C08C2F17
:1028400090E00E948F1280E001C081E0BFEFCB1AC0
:10285000DB0AA8CF80E001C081E0DF91CF911F911A
:102860000F91FF90EF90DF90CF900895AF92BF92BD
:10287000CF92DF92FF920F931F93CF93DF936C0160
:102880008B01F42EE90120E1421709F466C02417F8
:10289000F8F03AE0431721F18FE0481368C041E0B7
:1028A000C6010E94BD1340E0B801C6010E94B413E6
:1028B00041E8B801C6010E94AB134881B801C601C6
:1028C0000E94AB1340E0B801C6010E94BD13FFC0D7
:1028D000A1E14A1709F444C0B5E14B1791F047C094
:1028E000DB011496ED91FC91159720E030E042E079
:1028F00061E0099544E850E0B801C6010E94C613A2
:1029000036C0FB01A280B3804CE750E00E94C613A2
:10291000D50114964C91406BB801C6010E94AB13CF
:1029200041E0B801C6010E94B413F5012681378148
:10293000D8011496ED91FC911597D50115964C91FF
:1029400066E0C6010995811102C080E0C1C040E087
:10295000B801C6010E94BD130AC043E750E002C09F
:1029600048E650E0B801C6010E94C613B0C0F801A5
:1029700002811381F2E3FF1609F470C0FF15B8F06D
:1029800025E1F21609F477C037E1F31609F489C09E
:1029900084E1F8129CC0D8011696ED91FC9117972E
:1029A00015968C919F01280F311DC9015CC0A6E4CA
:1029B000FA1609F485C0B7E4FB1609F484C0EBE30A
:1029C000FE1285C089819B81913029F0933031F4CA
:1029D000482F885004C048E0480F01C0482F51E0FC
:1029E000D80113962C91281708F450E031E0F80133
:1029F0002281421708F430E021E0481708F020E077
:102A0000822F852B382319F4252309F460C0CA804E
:102A1000913061F038F0923061F0933071F4FF241E
:102A2000FA940CC0F12CDD24D39409C0FF24F39454
:102A300005C0F12CDD24DA9402C0F12CD12CC7FEA4
:102A400004C0BE01C8010E94331088818D0D8883A7
:102A500089818F0D8983CC0C91F739C0BE01C801E3
:102A60000E94331034C011928E179F07E1F7C801FE
:102A70000E945F102CC0C8010E944910882309F4ED
:102A800064CFD8011696ED91FC91179715968C910D
:102A90009F01280F311DC90111928E179F07E1F781
:102AA00016C01882D80112968C91129789831596B8
:102AB0008C91159781508A8313968C918B8307C0D4
:102AC000F801858103C0D80111968C91888381E03B
:102AD000DF91CF911F910F91FF90DF90CF90BF902A
:102AE000AF900895DF92EF92FF920F931F93CF93D1
:102AF000DF93EC01D62E1CAD0BAD7C0184E0E80E1B
:102B0000F11CE98DFA8DC7010995412F480F2D2D34
:102B1000602FC7010E94E6119BAD890F8BAF81E04A
:102B200090E0DF91CF911F910F91FF90EF90DF9098
:102B30000895089580E090E008950E9496171F92EE
:102B40000F920FB60F9211242F933F938F939F9361
:102B5000AF93BF938091D6019091D701A091D801F6
:102B6000B091D9013091D50123E0230F2D3720F406
:102B70000196A11DB11D05C026E8230F0296A11DD7
:102B8000B11D2093D5018093D6019093D701A093D6
:102B9000D801B093D9018091D1019091D201A09137
:102BA000D301B091D4010196A11DB11D8093D10133
:102BB0009093D201A093D301B093D401BF91AF9170
:102BC0009F918F913F912F910F900FBE0F901F906B
:102BD0001895CF93DF93CDB7DEB764970FB6F8940F
:102BE000DEBF0FBECDBF789484B5826084BD84B54E
:102BF000816084BD85B5826085BD85B5816085BDF8
:102C000080916E00816080936E00109281008091AF
:102C10008100826080938100809181008160809337
:102C20008100809180008160809380008091B1005C
:102C300084608093B1008091B00081608093B00087
:102C400080917A00846080937A0080917A0082601B
:102C500080937A0080917A00816080937A008091DD
:102C60007A00806880937A001092C10048EE842E2A
:102C700043E0942EA12CB12CCE0101967C0156E1AB
:102C8000452E5FE0552E6CEEC62E6FE0D62E222428
:102C900023943AEA632E30E0732E8091180281115A
:102CA00004C0209218020E946A100091E101109164
:102CB000E201E0911002F091110282E00995E091A9
:102CC0001002F091110281E0099520E030E044E12A
:102CD000B8018FED91E00E94661022E132E047E1F9
:102CE000B8018FED91E00E946610E0911002F09122
:102CF000110280E009958091E3019091E4018651F1
:102D00009F4051F05092E4014092E3010E94AD0FC8
:102D1000D092F501C092F4010091DF0110E00E9411
:102D2000CE11081B110917FF02C00F5F1F4FC8010A
:102D30009595879545E251E06DE00E94661280917D
:102D4000E3019091E4018A5A904051F07092E401BD
:102D50006092E3010E94AD0FD092F501C092F401A0
:102D600040E351E064E280E00E9466122FB7F894DD
:102D70006091D6017091D7018091D8019091D901CD
:102D80002FBFA50194010E946E175F934F933F934D
:102D90002F9381E491E09F938F93FF92EF920E9493
:102DA0009B17A70168E380E00E946612E091ED01A5
:102DB000F091EE010FB6F894DEBF0FBECDBF309795
:102DC00019F08FED91E009950091E1011091E20178
:102DD000E0911002F091110282E00995E091100259
:102DE000F091110281E0099520E030E045E1B80161
:102DF0008FED91E00E946610382E882341F022E189
:102E000032E047E1B8018FED91E00E946610E09159
:102E10001002F091110280E0099531106CCF80E032
:102E200090E0892B09F439CF0E94000030CF109236
:102E3000DE011092DD018DE191E09093DC01809341
:102E4000DB011092160210921702109218021092D3
:102E5000E4011092E3011092E6011092E501109254
:102E6000E80181E08093E70182E28093E90110921A
:102E7000EE011092ED01E2E0F2E08FEF819392E03B
:102E8000E031F907D9F781E08093FF012CEE3FE0B4
:102E90003093F5012093F4018093F6011092F7012D
:102EA0001092F80180E48093F9011092FA0188E110
:102EB00090E1909311028093100288E091E090934A
:102EC000E2018093E10110920D020E946A108DE1EF
:102ED00091E09093DC018093DB010895A1E21A2E2A
:102EE000AA1BBB1BFD010DC0AA1FBB1FEE1FFF1FAE
:102EF000A217B307E407F50720F0A21BB30BE40BFE
:102F0000F50B661F771F881F991F1A9469F7609544
:102F10007095809590959B01AC01BD01CF010895FE
:102F2000EE0FFF1F0590F491E02D099481E090E0F1
:102F3000F8940C94851AAEE0B0E0E1EAF7E10C9465
:102F40005C1A0D891E8986E08C831A8309838FEFB2
:102F50009FE79E838D83AE01475E5F4F6F89788DBB
:102F6000CE0101960E94BD17EF81F885E00FF11F99
:102F700010822E96E4E00C94781AABE0B0E0E3EC1B
:102F8000F7E10C944E1A6C017B018A01FC01178257
:102F90001682838181FFCCC1CE0101963C01F601EE
:102FA0009381F70193FD859193FF81917F018823A0
:102FB00009F4BAC1853239F493FD859193FF81916B
:102FC0007F01853229F4B60190E00E94B419E7CF61
:102FD000912C212C312CFFE1F315D8F08B3279F0B4
:102FE00038F4803279F08332A1F4232D20611DC0A2
:102FF0008D3261F0803369F4232D216016C0832D5A
:103000008260382EE32DE4603E2E2AC0F32DF86056
:103010001DC037FC2DC020ED280F2A3040F08E3225
:10302000B9F436FC81C1232D2064322E19C036FE3E
:1030300006C08AE0989E200D1124922E11C0EAE06D
:103040002E9E200D1124222EF32DF0623F2E08C05B
:103050008C3621F4832D8068382E02C0883641F4E6
:10306000F70193FD859193FF81917F018111B3CF8A
:10307000982F9F7D9554933028F40C5F1F4F9FE34A
:1030800099830DC0833631F0833771F0833509F0B1
:1030900059C021C0F801808189830E5F1F4F8824A9
:1030A0008394912C530113C02801F2E04F0E511C60
:1030B000F801A080B18036FE03C0692D70E002C027
:1030C0006FEF7FEFC5010E94A9194C018201F32D1A
:1030D000FF773F2E16C0280122E0420E511CF80156
:1030E000A080B18036FE03C0692D70E002C06FEF92
:1030F0007FEFC5010E949E194C01F32DF0683F2E11
:10310000820133FC1BC0822D90E088169906B0F432
:10311000B60180E290E00E94B4192A94F4CFF50140
:1031200037FC859137FE81915F01B60190E00E94E6
:10313000B41921102A9421E0821A91088114910473
:1031400071F7E8C0843611F0893641F5F80137FE91
:1031500007C060817181828193810C5F1F4F08C01D
:1031600060817181072E000C880B990B0E5F1F4F39
:10317000F32DFF763F2E97FF09C0909580957095AF
:1031800061957F4F8F4F9F4FF0683F2E2AE030E0D0
:10319000A3010E94F019882E861845C0853731F4A6
:1031A000232D2F7EB22E2AE030E025C0932D997F6B
:1031B000B92E8F36C1F018F4883579F0B5C0803754
:1031C00019F0883721F0B0C0E92FE061BE2EB4FEBF
:1031D0000DC0FB2DF460BF2E09C034FE0AC0292F9C
:1031E0002660B22E06C028E030E005C020E130E0C5
:1031F00002C020E132E0F801B7FE07C060817181B2
:10320000828193810C5F1F4F06C06081718180E0D5
:1032100090E00E5F1F4FA3010E94F019882E8618C0
:10322000FB2DFF773F2E36FE0DC0232D2E7FA22EC5
:10323000891458F434FE0BC032FC09C0832D8E7EF5
:10324000A82E05C0B82CA32C03C0B82C01C0B92CE3
:10325000A4FE0FC0FE01E80DF11D8081803321F432
:103260009A2D997EA92E09C0A2FE06C0B394B394EC
:1032700004C08A2D867809F0B394A3FC11C0A0FE87
:1032800006C0B21488F4280C922C9B180EC0B214FD
:1032900060F4B60180E290E00E94B419B394F7CFD5
:1032A000B21418F42B1802C0982C212CA4FE10C0C4
:1032B000B60180E390E00E94B419A2FE17C0A1FC01
:1032C00003C088E790E002C088E590E0B6010CC03A
:1032D0008A2D867859F0A1FE02C08BE201C080E2FF
:1032E000A7FC8DE2B60190E00E94B419891438F46D
:1032F000B60180E390E00E94B4199A94F7CF8A94C3
:10330000F301E80DF11D8081B60190E00E94B4192F
:103310008110F5CF222009F442CEB60180E290E080
:103320000E94B4192A94F6CFF6018681978102C0D3
:103330008FEF9FEF2B96E2E10C946A1AFC01059047
:10334000615070400110D8F7809590958E0F9F1FA7
:103350000895FC016150704001900110D8F78095EC
:1033600090958E0F9F1F08950F931F93CF93DF9318
:10337000FB01238121FD03C08FEF9FEF2CC022FFB3
:1033800016C046815781248135814217530744F482
:10339000A081B1819D012F5F3F4F318320838C93AA
:1033A000268137812F5F3F4F3783268314C08B01DF
:1033B000EC01FB010084F185E02D0995892BE1F6F4
:1033C000D80116968D919C911797019617969C930C
:1033D0008E931697CE01DF91CF911F910F91089593
:1033E000FA01AA27283051F1203181F1E8946F9336
:1033F0006E7F6E5F7F4F8F4F9F4FAF4FB1E03ED0DC
:10340000B4E03CD0670F781F891F9A1FA11D680F79
:10341000791F8A1F911DA11D6A0F711D811D911DAC
:10342000A11D20D009F468943F912AE0269F112421
:103430003019305D3193DEF6CF010895462F477085
:10344000405D4193B3E00FD0C9F7F6CF462F4F70E0
:10345000405D4A3318F0495D31FD4052419302D03E
:10346000A9F7EACFB4E0A6959795879577956795E4
:10347000BA95C9F700976105710508959B01AC01E4
:103480000A2E06945795479537952795BA95C9F70B
:10349000620F731F841F951FA01D08952F923F92E6
:1034A0004F925F926F927F928F929F92AF92BF9254
:1034B000CF92DF92EF92FF920F931F93CF93DF9300
:1034C000CDB7DEB7CA1BDB0B0FB6F894DEBF0FBE5D
:1034D000CDBF09942A88398848885F846E847D84AA
:1034E0008C849B84AA84B984C884DF80EE80FD80AC
:1034F0000C811B81AA81B981CE0FD11D0FB6F89422
:0E350000DEBF0FBECDBFED010895F894FFCFE2
:10350E0008400000008050013614000151134D791F
:10351E002041726475696E6F00000000007215EE36
:10352E000F9A1599154D792041726475696E6F0069
:10353E00446174653A20323031392D30372D3235B1
:10354E00004475726174696F6E3A202564207300B1
:107E0000112484B714BE81FFF0D085E080938100F7
:107E100082E08093C00088E18093C10086E0809377
:107E2000C20080E18093C4008EE0C9D0259A86E02C
:107E300020E33CEF91E0309385002093840096BBD3
:107E4000B09BFECF1D9AA8958150A9F7CC24DD24C4
:107E500088248394B5E0AB2EA1E19A2EF3E0BF2EE7
:107E6000A2D0813461F49FD0082FAFD0023811F036
:107E7000013811F484E001C083E08DD089C08234E0
:107E800011F484E103C0853419F485E0A6D080C0E4
:107E9000853579F488D0E82EFF2485D0082F10E0AE
:107EA000102F00270E291F29000F111F8ED06801E7
:107EB0006FC0863521F484E090D080E0DECF843638
:107EC00009F040C070D06FD0082F6DD080E0C81688
:107ED00080E7D80618F4F601B7BEE895C0E0D1E017
:107EE00062D089930C17E1F7F0E0CF16F0E7DF06D8
:107EF00018F0F601B7BEE89568D007B600FCFDCFD4
:107F0000A601A0E0B1E02C9130E011968C91119780
:107F100090E0982F8827822B932B1296FA010C0160
:107F200087BEE89511244E5F5F4FF1E0A038BF0790
:107F300051F7F601A7BEE89507B600FCFDCF97BE46
:107F4000E89526C08437B1F42ED02DD0F82E2BD052
:107F50003CD0F601EF2C8F010F5F1F4F84911BD097
:107F6000EA94F801C1F70894C11CD11CFA94CF0C13
:107F7000D11C0EC0853739F428D08EE10CD085E9AC
:107F80000AD08FE07ACF813511F488E018D01DD067
:107F900080E101D065CF982F8091C00085FFFCCF94
:107FA0009093C60008958091C00087FFFCCF809118
:107FB000C00084FD01C0A8958091C6000895E0E648
:107FC000F0E098E1908380830895EDDF803219F02E
:107FD00088E0F5DFFFCF84E1DECF1F93182FE3DFCA
:107FE0001150E9F7F2DF1F91089580E0E8DFEE27F6
:047FF000FF270994CA
:027FFE00040479
:0400000300007E007B
:00000001FF
