:100000000C94DE000C9406010C9406010C9406017D
:100010000C9406010C9406010C9406010C94060144
:100020000C9406010C9406010C9406010C94060134
:100030000C9406010C9406010C9406010C94060124
:100040000C94A3020C9406010C9406010C94060176
:100050000C9406010C9406010C9406010C94060104
:100060000C9406010C940601000000000000000042
:100070000000000000000000000000000000000080
:10008000010101010101010101010101020202025C
:10009000020202020303030303030404040405052C
:1000A00005050506060606070707080808090909E1
:1000B0000A0A0A0B0B0B0C0C0D0D0D0E0E0F0F1078
:1000C00010111112121313141415151616171818EF
:1000D00019191A1B1B1C1D1D1E1F1F202122222344
:1000E000242526262728292A2A2B2C2D2E2F30316D
:1000F00032333435363738393A3B3C3D3E3F404168
:10010000424445464748494B4C4D4E505152545538
:100110005658595A5C5D5E606163646667696A6CD3
:100120006D6F7072737577787A7C7D7F818284863B
:1001300088898B8D8F91929496989A9C9EA0A2A468
:10014000A6A8AAACAEB0B2B4B6B8BABCBFC1C3C55B
:10015000C7CACCCED1D3D5D7DADCDFE1E3E6E8EB12
:10016000EDF0F2F5F7FAFCFF000000002400270094
:100170002A0000000000250028002B0004040404CD
:100180000404040402020202020203030303030341
:10019000010204081020408001020408102001021E
:1001A00004081020000000080002010000030407FA
:1001B0000000000000000000B904180511241FBE53
:1001C000CFEFD8E0DEBFCDBF21E0A6E0B1E001C0B7
:1001D0001D92A932B207E1F711E0A0E0B1E0E0E83A
:1001E000FDE002C005900D92A630B107D9F710E0EE
:1001F000CDEDD0E004C02197FE010E948C05CC3DDE
:10020000D107C9F70E94ED020C94B3060C940000CC
:1002100090E0FC01EC55FE4F2491FC01E057FE4FAD
:100220003491FC01E458FE4FE491EE23B9F122230E
:1002300039F1233091F038F42130A9F0223001F562
:1002400084B58F7D12C0273091F02830A1F0243082
:10025000B9F4809180008F7D03C0809180008F77FA
:10026000809380000DC084B58F7784BD09C08091D4
:10027000B0008F7703C08091B0008F7D8093B00075
:10028000F0E0EE0FFF1FEE58FE4FA591B4919FB71F
:10029000F8948C91309538233C939FBF0895CF9369
:1002A000DF9390E0FC01E057FE4F2491FC01E458FD
:1002B000FE4F8491882361F190E0880F991FFC0123
:1002C000E859FE4FC591D491FC01EE58FE4FA5911F
:1002D000B491611109C09FB7F89488812095822359
:1002E0008883EC912E230BC0623061F49FB7F894A1
:1002F0008881322F309583238883EC912E2B2C9389
:100300009FBF06C08FB7F894E8812E2B28838FBF3C
:10031000DF91CF9108953FB7F89480910B019091B0
:100320000C01A0910D01B0910E0126B5A89B05C04E
:100330002F3F19F00196A11DB11D3FBFBA2FA92F64
:10034000982F8827820F911DA11DB11DBC01CD01E1
:1003500042E0660F771F881F991F4A95D1F70895CD
:100360000F931F93CF93DF93CDB7DEB729970FB6C7
:10037000F894DEBF0FBECDBF0E948B0100911E011D
:1003800010911F012091200130912101DC01CB014E
:10039000801B910BA20BB30B8C329140A105B105D0
:1003A00058F3F89480911301909114019A838983F2
:1003B000E0911801F0911901DF0111968081898780
:1003C00090910F01E0912201F0912301809124018D
:1003D000992309F42EC09081982B9887908180955D
:1003E00089238F838F818C8388E08B8358856F81ED
:1003F00049853B812C8189819A81508347FD252F36
:100400003A952083262F39F0441F00C000006083F6
:10041000000000C0F2CF38E04D91608300000197EA
:1004200061F7F0932301E093220149873B832C83FA
:1004300038C09081982B98879081809589238F83ED
:100440008F818E8388E08D8358856F8149853D81BA
:100450002E8189819A81508347FD252F00C000C0DD
:10046000208300C000C000C000C000C06083000046
:10047000262F3A9541F0441F000000C000C000C084
:1004800000C000C0E8CF38E04D9100C0608300C0DC
:10049000019709F7F0932301E093220149873D83F7
:1004A0002E839A83898378940E948B0160931E0126
:1004B00070931F01809320019093210129960FB61C
:1004C000F894DEBF0FBECDBFDF91CF911F910F918A
:1004D00008958F929F92AF92BF92CF92DF92EF9248
:1004E000FF926B017C010E948B014B015C01C114E6
:1004F000D104E104F104F1F00E948B01DC01CB0195
:1005000088199909AA09BB09883E9340A105B1053C
:1005100070F321E0C21AD108E108F10888EE880ED4
:1005200083E0981EA11CB11CC114D104E104F104A4
:1005300019F7DDCFFF90EF90DF90CF90BF90AF9095
:100540009F908F9008951F920F920FB60F921124D3
:100550002F933F938F939F93AF93BF938091070106
:1005600090910801A0910901B0910A013091060112
:1005700023E0230F2D3720F40196A11DB11D05C0E6
:1005800026E8230F0296A11DB11D2093060180933A
:10059000070190930801A0930901B0930A0180918B
:1005A0000B0190910C01A0910D01B0910E010196EB
:1005B000A11DB11D80930B0190930C01A0930D011F
:1005C000B0930E01BF91AF919F918F913F912F9169
:1005D0000F900FBE0F901F901895CF93DF93CDB75C
:1005E000DEB768970FB6F894DEBF0FBECDBF789424
:1005F00084B5826084BD84B5816084BD85B5826028
:1006000085BD85B5816085BD80916E0081608093D8
:100610006E00109281008091810082608093810041
:100620008091810081608093810080918000816051
:10063000809380008091B10084608093B1008091AC
:10064000B00081608093B00080917A0084608093D4
:100650007A0080917A00826080937A0080917A009B
:10066000816080937A0080917A00806880937A001C
:100670001092C100809115019091160197FD07C05D
:1006800061E00E944F01809115010E94080181E004
:100690008093100160911701653621F120911801B6
:1006A00030911901615031F070E08FEF94E60E94B3
:1006B000280502C060E070E0F901409113015091FB
:1006C0001401CF01821B930B8417950740F44081DE
:1006D000469FC001479F900D11249193EECF85E670
:1006E000809317018091180190911901892B11F0C5
:1006F0000E94B0019E012B5F3F4F3E832D83C12C92
:10070000D12C7601812C912C5401412C512C212C7F
:10071000312C00E010E020911101309112010217FC
:10072000130708F0FFC040E050E0C501B4010E948B
:100730003C052C0D3D1DAAEFB5E00E945B05DC01D8
:10074000CB019058AF4FBF4FCD01BB2797FDB09560
:10075000AB2F8E3F41E0940758F48F3F910518F47A
:10076000682F80E028C09EEF981B80E06FEF24C0C8
:100770008C3F53E0950760F48D3F42E0940718F4F6
:100780008E5F6FEF03C06CEF681B8FEF90E014C0BB
:100790008A3F55E0950769F08B3F44E0940728F4C1
:1007A00094E0980F8FEF60E007C05AEF581B852F39
:1007B00001C080E060E09FEF9B871C866D871E86EE
:1007C0008F87188A2D853E85C901A0E0B0E0BA2F39
:1007D000A92F982F88279C01AD0122274427552750
:1007E0002F83388749875A878F859889AC0160E0C5
:1007F00070E08F819885A985BA85842B952BA62BCF
:10080000B72B8F839887A987BA872B853C85C90129
:10081000A0E0B0E0DC0199278827AC01BD014427A6
:10082000552777278F819885A985BA85842B952BA5
:10083000A62BB72B89839A83AB83BC83DE011196E9
:10084000EC91F0E0E859FF4FE491ED934D815E812A
:100850004A175B07A9F789819A81AB81BC819D0109
:1008600044275527298B3A8B4B8B5C8B7988292F12
:100870003A2F4B2F55272D8B3E8B4F8B588F6D88E2
:100880008F8340911701442361F0749EB0011124BD
:10089000772E469D90011124632E489F90011124CC
:1008A0003F8350911D0160911A01209118013091F0
:1008B0001901561303C0220D331D15C0240D351D1B
:1008C0008B2F9927AA27BB27F901E50FF11D442398
:1008D00049F050E0489FB001499F700D589F700D3E
:1008E0001124872F808380911A01F901E80FF11DEF
:1008F000708280911B01F901E80FF11D60828091E7
:100900001C01F901E80FF11D8F8180830F5F1F4FDC
:1009100093E0290E311CA4E04A0E511CBFEFAB1A24
:10092000BB0AF9CE8091180190911901892B11F021
:100930000E94B00168E070E080E090E00E946902EF
:100940002FEFD21AE20AF20AC114D10433E0E3060F
:10095000F10409F0D7CE6AE070E080E090E00E94F8
:10096000690240E050E0452B09F4C9CE0E94000026
:10097000C6CE109210011092170110921E01109213
:100980001F01109220011092210181E080931D012E
:1009900080931A0110921B0192E090931C018093A6
:1009A0000F0188E490E090931401809313010E945A
:1009B00092059093190180931801009761F028E443
:1009C000FC0111922A95E9F788E190E090931201D9
:1009D0008093110108C0109214011092130110921B
:1009E0001201109211018AE090E090931601809319
:1009F000150180911001882339F061E08AE00E949E
:100A00004F018AE00E940801E6E8F1E0E491F0E09D
:100A1000EE0FFF1FEE58FE4F8591949190932301A6
:100A200080932201EAE9F1E0E491E0932401089542
:100A300080911801909119010E942A068091150158
:100A40009091160197FD03C060E00C944F0108954A
:100A5000AA1BBB1B51E107C0AA1FBB1FA617B707E4
:100A600010F0A61BB70B881F991F5A95A9F7809500
:100A70009095BC01CD010895052E97FB1EF40094BE
:100A80000E94530557FD07D00E946A0507FC03D05A
:100A90004EF40C94530550954095309521953F4F59
:100AA0004F4F5F4F089590958095709561957F4F5A
:100AB0008F4F9F4F0895A29FB001B39FC001A39F86
:100AC000700D811D1124911DB29F700D811D112487
:100AD000911D0895A1E21A2EAA1BBB1BFD010DC09A
:100AE000AA1FBB1FEE1FFF1FA217B307E407F507DE
:100AF00020F0A21BB30BE40BF50B661F771F881FBA
:100B0000991F1A9469F760957095809590959B014F
:100B1000AC01BD01CF010895EE0FFF1F0590F491C8
:100B2000E02D09940F931F93CF93DF9382309105AB
:100B300010F482E090E0E0912701F091280120E09C
:100B400030E0A0E0B0E0309719F14081518102819E
:100B5000138148175907C8F08417950769F410974F
:100B600031F012960C93129713961C9327C00093A2
:100B700027011093280122C02115310519F04217D1
:100B8000530718F49A01BD01EF01DF01F801DBCF33
:100B900021153105F9F0281B390B2430310580F47B
:100BA0008A819B816115710521F0FB01938382830A
:100BB00004C09093280180932701FE01329644C01F
:100BC000FE01E20FF31F8193919322503109398383
:100BD00028833AC02091250130912601232B41F42E
:100BE00020910201309103013093260120932501C9
:100BF00020910001309101012115310541F42DB7FB
:100C00003EB74091040150910501241B350BE09142
:100C10002501F0912601E217F307A0F42E1B3F0BEC
:100C20002817390778F0AC014E5F5F4F241735075E
:100C300048F04E0F5F1F509326014093250181938A
:100C4000919302C0E0E0F0E0CF01DF91CF911F91DE
:100C50000F910895CF93DF93009709F481C0FC01B1
:100C6000329713821282A0912701B0912801109728
:100C700081F420813181820F931F209125013091D1
:100C800026012817390751F5F0932601E093250135
:100C900067C0ED0120E030E0CE17DF0740F44A8165
:100CA0005B819E0141155105F1F0EA01F5CFD38337
:100CB000C28340815181840F951FC817D90759F409
:100CC00088819981840F951F0296918380838A8100
:100CD0009B81938382832115310529F4F0932801A8
:100CE000E09327013DC0E901FB83EA8349915991D3
:100CF000C40FD51FEC17FD0761F480819181840F2B
:100D0000951F0296E90199838883828193819B8351
:100D10008A83E0E0F0E012968D919C911397009702
:100D200019F0FD01DC01F7CF8D919C9111979D0188
:100D30002E5F3F4F820F931F209125013091260196
:100D40002817390769F4309729F410922801109276
:100D5000270102C013821282B0932601A0932501BD
:100D6000DF91CF91089510E0CDEDD0E004C0FE01F9
:100D70000E948C052196CE3DD107C9F7F894FFCF8C
:060D8000000029018000C3
:107E0000112484B714BE81FFF0D085E080938100F7
:107E100082E08093C00088E18093C10086E0809377
:107E2000C20080E18093C4008EE0C9D0259A86E02C
:107E300020E33CEF91E0309385002093840096BBD3
:107E4000B09BFECF1D9AA8958150A9F7CC24DD24C4
:107E500088248394B5E0AB2EA1E19A2EF3E0BF2EE7
:107E6000A2D0813461F49FD0082FAFD0023811F036
:107E7000013811F484E001C083E08DD089C08234E0
:107E800011F484E103C0853419F485E0A6D080C0E4
:107E9000853579F488D0E82EFF2485D0082F10E0AE
:107EA000102F00270E291F29000F111F8ED06801E7
:107EB0006FC0863521F484E090D080E0DECF843638
:107EC00009F040C070D06FD0082F6DD080E0C81688
:107ED00080E7D80618F4F601B7BEE895C0E0D1E017
:107EE00062D089930C17E1F7F0E0CF16F0E7DF06D8
:107EF00018F0F601B7BEE89568D007B600FCFDCFD4
:107F0000A601A0E0B1E02C9130E011968C91119780
:107F100090E0982F8827822B932B1296FA010C0160
:107F200087BEE89511244E5F5F4FF1E0A038BF0790
:107F300051F7F601A7BEE89507B600FCFDCF97BE46
:107F4000E89526C08437B1F42ED02DD0F82E2BD052
:107F50003CD0F601EF2C8F010F5F1F4F84911BD097
:107F6000EA94F801C1F70894C11CD11CFA94CF0C13
:107F7000D11C0EC0853739F428D08EE10CD085E9AC
:107F80000AD08FE07ACF813511F488E018D01DD067
:107F900080E101D065CF982F8091C00085FFFCCF94
:107FA0009093C60008958091C00087FFFCCF809118
:107FB000C00084FD01C0A8958091C6000895E0E648
:107FC000F0E098E1908380830895EDDF803219F02E
:107FD00088E0F5DFFFCF84E1DECF1F93182FE3DFCA
:107FE0001150E9F7F2DF1F91089580E0E8DFEE27F6
:047FF000FF270994CA
:027FFE00040479
:0400000300007E007B
:00000001FF
